{
  "contracts/QnA.sol": {
    "QnA": {
      "abi": [
        {
          "inputs": [
            {
              "internalType": "address",
              "name": "tokenAddress",
              "type": "address"
            }
          ],
          "stateMutability": "nonpayable",
          "type": "constructor"
        },
        {
          "anonymous": false,
          "inputs": [
            {
              "indexed": false,
              "internalType": "uint256",
              "name": "questionId",
              "type": "uint256"
            },
            {
              "indexed": false,
              "internalType": "address",
              "name": "replier",
              "type": "address"
            },
            {
              "indexed": false,
              "internalType": "string",
              "name": "content",
              "type": "string"
            }
          ],
          "name": "AnswerPosted",
          "type": "event"
        },
        {
          "anonymous": false,
          "inputs": [
            {
              "indexed": false,
              "internalType": "uint256",
              "name": "questionId",
              "type": "uint256"
            },
            {
              "indexed": false,
              "internalType": "uint256",
              "name": "answerId",
              "type": "uint256"
            },
            {
              "indexed": false,
              "internalType": "address",
              "name": "voter",
              "type": "address"
            },
            {
              "indexed": false,
              "internalType": "uint256",
              "name": "tokens",
              "type": "uint256"
            }
          ],
          "name": "AnswerUpvoted",
          "type": "event"
        },
        {
          "anonymous": false,
          "inputs": [
            {
              "indexed": false,
              "internalType": "uint256",
              "name": "questionId",
              "type": "uint256"
            },
            {
              "indexed": false,
              "internalType": "address",
              "name": "asker",
              "type": "address"
            },
            {
              "indexed": false,
              "internalType": "string",
              "name": "content",
              "type": "string"
            },
            {
              "indexed": false,
              "internalType": "uint256",
              "name": "bounty",
              "type": "uint256"
            }
          ],
          "name": "QuestionPosted",
          "type": "event"
        },
        {
          "anonymous": false,
          "inputs": [
            {
              "indexed": false,
              "internalType": "uint256",
              "name": "questionId",
              "type": "uint256"
            },
            {
              "indexed": false,
              "internalType": "address",
              "name": "voter",
              "type": "address"
            },
            {
              "indexed": false,
              "internalType": "uint256",
              "name": "tokens",
              "type": "uint256"
            }
          ],
          "name": "QuestionUpvoted",
          "type": "event"
        },
        {
          "inputs": [],
          "name": "answerDeadline",
          "outputs": [
            {
              "internalType": "uint256",
              "name": "",
              "type": "uint256"
            }
          ],
          "stateMutability": "view",
          "type": "function"
        },
        {
          "inputs": [
            {
              "internalType": "uint256",
              "name": "",
              "type": "uint256"
            },
            {
              "internalType": "uint256",
              "name": "",
              "type": "uint256"
            }
          ],
          "name": "answers",
          "outputs": [
            {
              "internalType": "address",
              "name": "replier",
              "type": "address"
            },
            {
              "internalType": "string",
              "name": "content",
              "type": "string"
            },
            {
              "internalType": "uint256",
              "name": "upvotes",
              "type": "uint256"
            },
            {
              "internalType": "uint256",
              "name": "lastUpvoted",
              "type": "uint256"
            }
          ],
          "stateMutability": "view",
          "type": "function"
        },
        {
          "inputs": [
            {
              "internalType": "uint256",
              "name": "questionId",
              "type": "uint256"
            }
          ],
          "name": "claimBounty",
          "outputs": [],
          "stateMutability": "nonpayable",
          "type": "function"
        },
        {
          "inputs": [],
          "name": "claimParticipationRewards",
          "outputs": [],
          "stateMutability": "nonpayable",
          "type": "function"
        },
        {
          "inputs": [
            {
              "internalType": "address",
              "name": "",
              "type": "address"
            }
          ],
          "name": "participationReward",
          "outputs": [
            {
              "internalType": "uint256",
              "name": "",
              "type": "uint256"
            }
          ],
          "stateMutability": "view",
          "type": "function"
        },
        {
          "inputs": [
            {
              "internalType": "uint256",
              "name": "questionId",
              "type": "uint256"
            },
            {
              "internalType": "string",
              "name": "content",
              "type": "string"
            }
          ],
          "name": "postAnswer",
          "outputs": [],
          "stateMutability": "nonpayable",
          "type": "function"
        },
        {
          "inputs": [
            {
              "internalType": "string",
              "name": "content",
              "type": "string"
            },
            {
              "internalType": "uint256",
              "name": "bounty",
              "type": "uint256"
            }
          ],
          "name": "postQuestion",
          "outputs": [],
          "stateMutability": "nonpayable",
          "type": "function"
        },
        {
          "inputs": [],
          "name": "questionLength",
          "outputs": [
            {
              "internalType": "uint256",
              "name": "",
              "type": "uint256"
            }
          ],
          "stateMutability": "view",
          "type": "function"
        },
        {
          "inputs": [
            {
              "internalType": "uint256",
              "name": "",
              "type": "uint256"
            }
          ],
          "name": "questions",
          "outputs": [
            {
              "internalType": "address",
              "name": "asker",
              "type": "address"
            },
            {
              "internalType": "string",
              "name": "content",
              "type": "string"
            },
            {
              "internalType": "uint256",
              "name": "bounty",
              "type": "uint256"
            },
            {
              "internalType": "uint256",
              "name": "createdAt",
              "type": "uint256"
            },
            {
              "internalType": "bool",
              "name": "bountyClaimed",
              "type": "bool"
            },
            {
              "internalType": "uint256",
              "name": "upvotes",
              "type": "uint256"
            }
          ],
          "stateMutability": "view",
          "type": "function"
        },
        {
          "inputs": [],
          "name": "rewardClaimDeadline",
          "outputs": [
            {
              "internalType": "uint256",
              "name": "",
              "type": "uint256"
            }
          ],
          "stateMutability": "view",
          "type": "function"
        },
        {
          "inputs": [],
          "name": "token",
          "outputs": [
            {
              "internalType": "contract QaCoin",
              "name": "",
              "type": "address"
            }
          ],
          "stateMutability": "view",
          "type": "function"
        },
        {
          "inputs": [
            {
              "internalType": "uint256",
              "name": "questionId",
              "type": "uint256"
            },
            {
              "internalType": "uint256",
              "name": "answerId",
              "type": "uint256"
            },
            {
              "internalType": "uint256",
              "name": "tokens",
              "type": "uint256"
            }
          ],
          "name": "upvoteAnswer",
          "outputs": [],
          "stateMutability": "nonpayable",
          "type": "function"
        },
        {
          "inputs": [
            {
              "internalType": "uint256",
              "name": "questionId",
              "type": "uint256"
            },
            {
              "internalType": "uint256",
              "name": "tokens",
              "type": "uint256"
            }
          ],
          "name": "upvoteQuestion",
          "outputs": [],
          "stateMutability": "nonpayable",
          "type": "function"
        }
      ],
      "evm": {
        "bytecode": {
          "linkReferences": {},
          "object": "60806040526203f48060045562278d006005553480156200001f57600080fd5b5060405162001f0338038062001f038339818101604052810190620000459190620000f6565b806000806101000a81548173ffffffffffffffffffffffffffffffffffffffff021916908373ffffffffffffffffffffffffffffffffffffffff1602179055505062000128565b600080fd5b600073ffffffffffffffffffffffffffffffffffffffff82169050919050565b6000620000be8262000091565b9050919050565b620000d081620000b1565b8114620000dc57600080fd5b50565b600081519050620000f081620000c5565b92915050565b6000602082840312156200010f576200010e6200008c565b5b60006200011f84828501620000df565b91505092915050565b611dcb80620001386000396000f3fe608060405234801561001057600080fd5b50600436106100cf5760003560e01c806375f39fd71161008c578063abb4b2a611610066578063abb4b2a614610206578063c921d66c14610210578063ea9440f01461022c578063fc0c546a1461025c576100cf565b806375f39fd7146101ae57806394ccbd35146101cc5780639dd62717146101ea576100cf565b8063211e3734146100d45780632401519c146100f057806331b1b9781461012357806344021ad71461015857806348d69ab314610174578063674ed6b914610190575b600080fd5b6100ee60048036038101906100e99190611023565b61027a565b005b61010a60048036038101906101059190611023565b6103da565b60405161011a9493929190611143565b60405180910390f35b61013d6004803603810190610138919061118f565b6104cf565b60405161014f969594939291906111d7565b60405180910390f35b610172600480360381019061016d919061118f565b6105d0565b005b61018e600480360381019061018991906112a4565b610783565b005b610198610a04565b6040516101a59190611304565b60405180910390f35b6101b6610a0a565b6040516101c39190611304565b60405180910390f35b6101d4610a10565b6040516101e19190611304565b60405180910390f35b61020460048036038101906101ff919061131f565b610a1d565b005b61020e610c06565b005b61022a60048036038101906102259190611372565b610dc4565b005b610246600480360381019061024191906113fe565b610fa7565b6040516102539190611304565b60405180910390f35b610264610fbf565b604051610271919061148a565b60405180910390f35b60008054906101000a900473ffffffffffffffffffffffffffffffffffffffff1673ffffffffffffffffffffffffffffffffffffffff166323b872dd3330846040518463ffffffff1660e01b81526004016102d7939291906114a5565b6020604051808303816000875af11580156102f6573d6000803e3d6000fd5b505050506040513d601f19601f8201168201806040525081019061031a9190611508565b610359576040517f08c379a000000000000000000000000000000000000000000000000000000000815260040161035090611581565b60405180910390fd5b60006001838154811061036f5761036e6115a1565b5b906000526020600020906006020190508181600501600082825461039391906115ff565b925050819055507fdc0d26686e856e21cb2004fa5c0d79c922a19e94c9eb4b2328ba007cae3e31aa8333846040516103cd93929190611633565b60405180910390a1505050565b600260205281600052604060002081815481106103f657600080fd5b9060005260206000209060040201600091509150508060000160009054906101000a900473ffffffffffffffffffffffffffffffffffffffff169080600101805461044090611699565b80601f016020809104026020016040519081016040528092919081815260200182805461046c90611699565b80156104b95780601f1061048e576101008083540402835291602001916104b9565b820191906000526020600020905b81548152906001019060200180831161049c57829003601f168201915b5050505050908060020154908060030154905084565b600181815481106104df57600080fd5b90600052602060002090600602016000915090508060000160009054906101000a900473ffffffffffffffffffffffffffffffffffffffff169080600101805461052890611699565b80601f016020809104026020016040519081016040528092919081815260200182805461055490611699565b80156105a15780601f10610576576101008083540402835291602001916105a1565b820191906000526020600020905b81548152906001019060200180831161058457829003601f168201915b5050505050908060020154908060030154908060040160009054906101000a900460ff16908060050154905086565b6000600182815481106105e6576105e56115a1565b5b906000526020600020906006020190508060040160009054906101000a900460ff1615610648576040517f08c379a000000000000000000000000000000000000000000000000000000000815260040161063f90611716565b60405180910390fd5b600454816003015461065a91906115ff565b421161069b576040517f08c379a000000000000000000000000000000000000000000000000000000000815260040161069290611782565b60405180910390fd5b60008054906101000a900473ffffffffffffffffffffffffffffffffffffffff1673ffffffffffffffffffffffffffffffffffffffff1663a9059cbb8260000160009054906101000a900473ffffffffffffffffffffffffffffffffffffffff1683600201546040518363ffffffff1660e01b815260040161071e9291906117a2565b6020604051808303816000875af115801561073d573d6000803e3d6000fd5b505050506040513d601f19601f820116820180604052508101906107619190611508565b5060018160040160006101000a81548160ff0219169083151502179055505050565b60008054906101000a900473ffffffffffffffffffffffffffffffffffffffff1673ffffffffffffffffffffffffffffffffffffffff166323b872dd3330846040518463ffffffff1660e01b81526004016107e0939291906114a5565b6020604051808303816000875af11580156107ff573d6000803e3d6000fd5b505050506040513d601f19601f820116820180604052508101906108239190611508565b610862576040517f08c379a000000000000000000000000000000000000000000000000000000000815260040161085990611581565b60405180910390fd5b6000600180549050905060016040518060c001604052803373ffffffffffffffffffffffffffffffffffffffff16815260200186868080601f016020809104026020016040519081016040528093929190818152602001838380828437600081840152601f19601f8201169050808301925050505050505081526020018481526020014281526020016000151581526020016000815250908060018154018082558091505060019003906000526020600020906006020160009091909190915060008201518160000160006101000a81548173ffffffffffffffffffffffffffffffffffffffff021916908373ffffffffffffffffffffffffffffffffffffffff160217905550602082015181600101908161097e919061199c565b50604082015181600201556060820151816003015560808201518160040160006101000a81548160ff02191690831515021790555060a0820151816005015550507f5f901914daf8ce84a45e4a2457c3fa7ae0a48a48ac198af7f1b419ad6902a5ce81338686866040516109f6959493929190611aaa565b60405180910390a150505050565b60055481565b60045481565b6000600180549050905090565b60045460018481548110610a3457610a336115a1565b5b906000526020600020906006020160030154610a5091906115ff565b421115610a92576040517f08c379a0000000000000000000000000000000000000000000000000000000008152600401610a8990611b44565b60405180910390fd5b60008054906101000a900473ffffffffffffffffffffffffffffffffffffffff1673ffffffffffffffffffffffffffffffffffffffff166323b872dd3330846040518463ffffffff1660e01b8152600401610aef939291906114a5565b6020604051808303816000875af1158015610b0e573d6000803e3d6000fd5b505050506040513d601f19601f82011682018060405250810190610b329190611508565b610b71576040517f08c379a0000000000000000000000000000000000000000000000000000000008152600401610b6890611581565b60405180910390fd5b6000600260008581526020019081526020016000208381548110610b9857610b976115a1565b5b9060005260206000209060040201905081816002016000828254610bbc91906115ff565b925050819055507f5994f7e79e43903397536164b67554baea03717b995b95d1a8cabdbb62a3afc584843385604051610bf89493929190611b64565b60405180910390a150505050565b6005544211610c4a576040517f08c379a0000000000000000000000000000000000000000000000000000000008152600401610c4190611c1b565b60405180910390fd5b6000600360003373ffffffffffffffffffffffffffffffffffffffff1673ffffffffffffffffffffffffffffffffffffffff16815260200190815260200160002054905060008111610cd1576040517f08c379a0000000000000000000000000000000000000000000000000000000008152600401610cc890611c87565b60405180910390fd5b60008054906101000a900473ffffffffffffffffffffffffffffffffffffffff1673ffffffffffffffffffffffffffffffffffffffff1663a9059cbb33600284610d1b9190611ca7565b6040518363ffffffff1660e01b8152600401610d389291906117a2565b6020604051808303816000875af1158015610d57573d6000803e3d6000fd5b505050506040513d601f19601f82011682018060405250810190610d7b9190611508565b506000600360003373ffffffffffffffffffffffffffffffffffffffff1673ffffffffffffffffffffffffffffffffffffffff1681526020019081526020016000208190555050565b60045460018481548110610ddb57610dda6115a1565b5b906000526020600020906006020160030154610df791906115ff565b421115610e39576040517f08c379a0000000000000000000000000000000000000000000000000000000008152600401610e3090611d35565b60405180910390fd5b6002600084815260200190815260200160002060405180608001604052803373ffffffffffffffffffffffffffffffffffffffff16815260200184848080601f016020809104026020016040519081016040528093929190818152602001838380828437600081840152601f19601f820116905080830192505050505050508152602001600081526020016000815250908060018154018082558091505060019003906000526020600020906004020160009091909190915060008201518160000160006101000a81548173ffffffffffffffffffffffffffffffffffffffff021916908373ffffffffffffffffffffffffffffffffffffffff1602179055506020820151816001019081610f4e919061199c565b50604082015181600201556060820151816003015550507f9792842a8ec27cc6000e36a75350d840baa9dcfcc21f160cbde1405b0d703aa383338484604051610f9a9493929190611d55565b60405180910390a1505050565b60036020528060005260406000206000915090505481565b60008054906101000a900473ffffffffffffffffffffffffffffffffffffffff1681565b600080fd5b600080fd5b6000819050919050565b61100081610fed565b811461100b57600080fd5b50565b60008135905061101d81610ff7565b92915050565b6000806040838503121561103a57611039610fe3565b5b60006110488582860161100e565b92505060206110598582860161100e565b9150509250929050565b600073ffffffffffffffffffffffffffffffffffffffff82169050919050565b600061108e82611063565b9050919050565b61109e81611083565b82525050565b600081519050919050565b600082825260208201905092915050565b60005b838110156110de5780820151818401526020810190506110c3565b60008484015250505050565b6000601f19601f8301169050919050565b6000611106826110a4565b61111081856110af565b93506111208185602086016110c0565b611129816110ea565b840191505092915050565b61113d81610fed565b82525050565b60006080820190506111586000830187611095565b818103602083015261116a81866110fb565b90506111796040830185611134565b6111866060830184611134565b95945050505050565b6000602082840312156111a5576111a4610fe3565b5b60006111b38482850161100e565b91505092915050565b60008115159050919050565b6111d1816111bc565b82525050565b600060c0820190506111ec6000830189611095565b81810360208301526111fe81886110fb565b905061120d6040830187611134565b61121a6060830186611134565b61122760808301856111c8565b61123460a0830184611134565b979650505050505050565b600080fd5b600080fd5b600080fd5b60008083601f8401126112645761126361123f565b5b8235905067ffffffffffffffff81111561128157611280611244565b5b60208301915083600182028301111561129d5761129c611249565b5b9250929050565b6000806000604084860312156112bd576112bc610fe3565b5b600084013567ffffffffffffffff8111156112db576112da610fe8565b5b6112e78682870161124e565b935093505060206112fa8682870161100e565b9150509250925092565b60006020820190506113196000830184611134565b92915050565b60008060006060848603121561133857611337610fe3565b5b60006113468682870161100e565b93505060206113578682870161100e565b92505060406113688682870161100e565b9150509250925092565b60008060006040848603121561138b5761138a610fe3565b5b60006113998682870161100e565b935050602084013567ffffffffffffffff8111156113ba576113b9610fe8565b5b6113c68682870161124e565b92509250509250925092565b6113db81611083565b81146113e657600080fd5b50565b6000813590506113f8816113d2565b92915050565b60006020828403121561141457611413610fe3565b5b6000611422848285016113e9565b91505092915050565b6000819050919050565b600061145061144b61144684611063565b61142b565b611063565b9050919050565b600061146282611435565b9050919050565b600061147482611457565b9050919050565b61148481611469565b82525050565b600060208201905061149f600083018461147b565b92915050565b60006060820190506114ba6000830186611095565b6114c76020830185611095565b6114d46040830184611134565b949350505050565b6114e5816111bc565b81146114f057600080fd5b50565b600081519050611502816114dc565b92915050565b60006020828403121561151e5761151d610fe3565b5b600061152c848285016114f3565b91505092915050565b7f4661696c656420746f207472616e7366657220746f6b656e7300000000000000600082015250565b600061156b6019836110af565b915061157682611535565b602082019050919050565b6000602082019050818103600083015261159a8161155e565b9050919050565b7f4e487b7100000000000000000000000000000000000000000000000000000000600052603260045260246000fd5b7f4e487b7100000000000000000000000000000000000000000000000000000000600052601160045260246000fd5b600061160a82610fed565b915061161583610fed565b925082820190508082111561162d5761162c6115d0565b5b92915050565b60006060820190506116486000830186611134565b6116556020830185611095565b6116626040830184611134565b949350505050565b7f4e487b7100000000000000000000000000000000000000000000000000000000600052602260045260246000fd5b600060028204905060018216806116b157607f821691505b6020821081036116c4576116c361166a565b5b50919050565b7f426f756e747920616c726561647920636c61696d656400000000000000000000600082015250565b60006117006016836110af565b915061170b826116ca565b602082019050919050565b6000602082019050818103600083015261172f816116f3565b9050919050565b7f446561646c696e65206e6f742079657420706173736564000000000000000000600082015250565b600061176c6017836110af565b915061177782611736565b602082019050919050565b6000602082019050818103600083015261179b8161175f565b9050919050565b60006040820190506117b76000830185611095565b6117c46020830184611134565b9392505050565b7f4e487b7100000000000000000000000000000000000000000000000000000000600052604160045260246000fd5b60008190508160005260206000209050919050565b60006020601f8301049050919050565b600082821b905092915050565b60006008830261185c7fffffffffffffffffffffffffffffffffffffffffffffffffffffffffffffffff8261181f565b611866868361181f565b95508019841693508086168417925050509392505050565b600061189961189461188f84610fed565b61142b565b610fed565b9050919050565b6000819050919050565b6118b38361187e565b6118c76118bf826118a0565b84845461182c565b825550505050565b600090565b6118dc6118cf565b6118e78184846118aa565b505050565b5b8181101561190b576119006000826118d4565b6001810190506118ed565b5050565b601f82111561195057611921816117fa565b61192a8461180f565b81016020851015611939578190505b61194d6119458561180f565b8301826118ec565b50505b505050565b600082821c905092915050565b600061197360001984600802611955565b1980831691505092915050565b600061198c8383611962565b9150826002028217905092915050565b6119a5826110a4565b67ffffffffffffffff8111156119be576119bd6117cb565b5b6119c88254611699565b6119d382828561190f565b600060209050601f831160018114611a0657600084156119f4578287015190505b6119fe8582611980565b865550611a66565b601f198416611a14866117fa565b60005b82811015611a3c57848901518255600182019150602085019450602081019050611a17565b86831015611a595784890151611a55601f891682611962565b8355505b6001600288020188555050505b505050505050565b82818337600083830152505050565b6000611a8983856110af565b9350611a96838584611a6e565b611a9f836110ea565b840190509392505050565b6000608082019050611abf6000830188611134565b611acc6020830187611095565b8181036040830152611adf818587611a7d565b9050611aee6060830184611134565b9695505050505050565b7f566f74696e6720646561646c696e652068617320706173736564000000000000600082015250565b6000611b2e601a836110af565b9150611b3982611af8565b602082019050919050565b60006020820190508181036000830152611b5d81611b21565b9050919050565b6000608082019050611b796000830187611134565b611b866020830186611134565b611b936040830185611095565b611ba06060830184611134565b95945050505050565b7f52657761726420636c61696d20706572696f64206e6f7420796574207374617260008201527f7465640000000000000000000000000000000000000000000000000000000000602082015250565b6000611c056023836110af565b9150611c1082611ba9565b604082019050919050565b60006020820190508181036000830152611c3481611bf8565b9050919050565b7f4e6f207265776172647320617661696c61626c65000000000000000000000000600082015250565b6000611c716014836110af565b9150611c7c82611c3b565b602082019050919050565b60006020820190508181036000830152611ca081611c64565b9050919050565b6000611cb282610fed565b9150611cbd83610fed565b9250828202611ccb81610fed565b91508282048414831517611ce257611ce16115d0565b5b5092915050565b7f416e7377657220646561646c696e652068617320706173736564000000000000600082015250565b6000611d1f601a836110af565b9150611d2a82611ce9565b602082019050919050565b60006020820190508181036000830152611d4e81611d12565b9050919050565b6000606082019050611d6a6000830187611134565b611d776020830186611095565b8181036040830152611d8a818486611a7d565b90509594505050505056fea26469706673582212205c2ca61b3b225fbd7ce8a472d3f627c9a4422bebbb899744610c9a3386818ec964736f6c63430008180033",
          "opcodes": "PUSH1 0x80 PUSH1 0x40 MSTORE PUSH3 0x3F480 PUSH1 0x4 SSTORE PUSH3 0x278D00 PUSH1 0x5 SSTORE CALLVALUE DUP1 ISZERO PUSH3 0x1F JUMPI PUSH1 0x0 DUP1 REVERT JUMPDEST POP PUSH1 0x40 MLOAD PUSH3 0x1F03 CODESIZE SUB DUP1 PUSH3 0x1F03 DUP4 CODECOPY DUP2 DUP2 ADD PUSH1 0x40 MSTORE DUP2 ADD SWAP1 PUSH3 0x45 SWAP2 SWAP1 PUSH3 0xF6 JUMP JUMPDEST DUP1 PUSH1 0x0 DUP1 PUSH2 0x100 EXP DUP2 SLOAD DUP2 PUSH20 0xFFFFFFFFFFFFFFFFFFFFFFFFFFFFFFFFFFFFFFFF MUL NOT AND SWAP1 DUP4 PUSH20 0xFFFFFFFFFFFFFFFFFFFFFFFFFFFFFFFFFFFFFFFF AND MUL OR SWAP1 SSTORE POP POP PUSH3 0x128 JUMP JUMPDEST PUSH1 0x0 DUP1 REVERT JUMPDEST PUSH1 0x0 PUSH20 0xFFFFFFFFFFFFFFFFFFFFFFFFFFFFFFFFFFFFFFFF DUP3 AND SWAP1 POP SWAP2 SWAP1 POP JUMP JUMPDEST PUSH1 0x0 PUSH3 0xBE DUP3 PUSH3 0x91 JUMP JUMPDEST SWAP1 POP SWAP2 SWAP1 POP JUMP JUMPDEST PUSH3 0xD0 DUP2 PUSH3 0xB1 JUMP JUMPDEST DUP2 EQ PUSH3 0xDC JUMPI PUSH1 0x0 DUP1 REVERT JUMPDEST POP JUMP JUMPDEST PUSH1 0x0 DUP2 MLOAD SWAP1 POP PUSH3 0xF0 DUP2 PUSH3 0xC5 JUMP JUMPDEST SWAP3 SWAP2 POP POP JUMP JUMPDEST PUSH1 0x0 PUSH1 0x20 DUP3 DUP5 SUB SLT ISZERO PUSH3 0x10F JUMPI PUSH3 0x10E PUSH3 0x8C JUMP JUMPDEST JUMPDEST PUSH1 0x0 PUSH3 0x11F DUP5 DUP3 DUP6 ADD PUSH3 0xDF JUMP JUMPDEST SWAP2 POP POP SWAP3 SWAP2 POP POP JUMP JUMPDEST PUSH2 0x1DCB DUP1 PUSH3 0x138 PUSH1 0x0 CODECOPY PUSH1 0x0 RETURN INVALID PUSH1 0x80 PUSH1 0x40 MSTORE CALLVALUE DUP1 ISZERO PUSH2 0x10 JUMPI PUSH1 0x0 DUP1 REVERT JUMPDEST POP PUSH1 0x4 CALLDATASIZE LT PUSH2 0xCF JUMPI PUSH1 0x0 CALLDATALOAD PUSH1 0xE0 SHR DUP1 PUSH4 0x75F39FD7 GT PUSH2 0x8C JUMPI DUP1 PUSH4 0xABB4B2A6 GT PUSH2 0x66 JUMPI DUP1 PUSH4 0xABB4B2A6 EQ PUSH2 0x206 JUMPI DUP1 PUSH4 0xC921D66C EQ PUSH2 0x210 JUMPI DUP1 PUSH4 0xEA9440F0 EQ PUSH2 0x22C JUMPI DUP1 PUSH4 0xFC0C546A EQ PUSH2 0x25C JUMPI PUSH2 0xCF JUMP JUMPDEST DUP1 PUSH4 0x75F39FD7 EQ PUSH2 0x1AE JUMPI DUP1 PUSH4 0x94CCBD35 EQ PUSH2 0x1CC JUMPI DUP1 PUSH4 0x9DD62717 EQ PUSH2 0x1EA JUMPI PUSH2 0xCF JUMP JUMPDEST DUP1 PUSH4 0x211E3734 EQ PUSH2 0xD4 JUMPI DUP1 PUSH4 0x2401519C EQ PUSH2 0xF0 JUMPI DUP1 PUSH4 0x31B1B978 EQ PUSH2 0x123 JUMPI DUP1 PUSH4 0x44021AD7 EQ PUSH2 0x158 JUMPI DUP1 PUSH4 0x48D69AB3 EQ PUSH2 0x174 JUMPI DUP1 PUSH4 0x674ED6B9 EQ PUSH2 0x190 JUMPI JUMPDEST PUSH1 0x0 DUP1 REVERT JUMPDEST PUSH2 0xEE PUSH1 0x4 DUP1 CALLDATASIZE SUB DUP2 ADD SWAP1 PUSH2 0xE9 SWAP2 SWAP1 PUSH2 0x1023 JUMP JUMPDEST PUSH2 0x27A JUMP JUMPDEST STOP JUMPDEST PUSH2 0x10A PUSH1 0x4 DUP1 CALLDATASIZE SUB DUP2 ADD SWAP1 PUSH2 0x105 SWAP2 SWAP1 PUSH2 0x1023 JUMP JUMPDEST PUSH2 0x3DA JUMP JUMPDEST PUSH1 0x40 MLOAD PUSH2 0x11A SWAP5 SWAP4 SWAP3 SWAP2 SWAP1 PUSH2 0x1143 JUMP JUMPDEST PUSH1 0x40 MLOAD DUP1 SWAP2 SUB SWAP1 RETURN JUMPDEST PUSH2 0x13D PUSH1 0x4 DUP1 CALLDATASIZE SUB DUP2 ADD SWAP1 PUSH2 0x138 SWAP2 SWAP1 PUSH2 0x118F JUMP JUMPDEST PUSH2 0x4CF JUMP JUMPDEST PUSH1 0x40 MLOAD PUSH2 0x14F SWAP7 SWAP6 SWAP5 SWAP4 SWAP3 SWAP2 SWAP1 PUSH2 0x11D7 JUMP JUMPDEST PUSH1 0x40 MLOAD DUP1 SWAP2 SUB SWAP1 RETURN JUMPDEST PUSH2 0x172 PUSH1 0x4 DUP1 CALLDATASIZE SUB DUP2 ADD SWAP1 PUSH2 0x16D SWAP2 SWAP1 PUSH2 0x118F JUMP JUMPDEST PUSH2 0x5D0 JUMP JUMPDEST STOP JUMPDEST PUSH2 0x18E PUSH1 0x4 DUP1 CALLDATASIZE SUB DUP2 ADD SWAP1 PUSH2 0x189 SWAP2 SWAP1 PUSH2 0x12A4 JUMP JUMPDEST PUSH2 0x783 JUMP JUMPDEST STOP JUMPDEST PUSH2 0x198 PUSH2 0xA04 JUMP JUMPDEST PUSH1 0x40 MLOAD PUSH2 0x1A5 SWAP2 SWAP1 PUSH2 0x1304 JUMP JUMPDEST PUSH1 0x40 MLOAD DUP1 SWAP2 SUB SWAP1 RETURN JUMPDEST PUSH2 0x1B6 PUSH2 0xA0A JUMP JUMPDEST PUSH1 0x40 MLOAD PUSH2 0x1C3 SWAP2 SWAP1 PUSH2 0x1304 JUMP JUMPDEST PUSH1 0x40 MLOAD DUP1 SWAP2 SUB SWAP1 RETURN JUMPDEST PUSH2 0x1D4 PUSH2 0xA10 JUMP JUMPDEST PUSH1 0x40 MLOAD PUSH2 0x1E1 SWAP2 SWAP1 PUSH2 0x1304 JUMP JUMPDEST PUSH1 0x40 MLOAD DUP1 SWAP2 SUB SWAP1 RETURN JUMPDEST PUSH2 0x204 PUSH1 0x4 DUP1 CALLDATASIZE SUB DUP2 ADD SWAP1 PUSH2 0x1FF SWAP2 SWAP1 PUSH2 0x131F JUMP JUMPDEST PUSH2 0xA1D JUMP JUMPDEST STOP JUMPDEST PUSH2 0x20E PUSH2 0xC06 JUMP JUMPDEST STOP JUMPDEST PUSH2 0x22A PUSH1 0x4 DUP1 CALLDATASIZE SUB DUP2 ADD SWAP1 PUSH2 0x225 SWAP2 SWAP1 PUSH2 0x1372 JUMP JUMPDEST PUSH2 0xDC4 JUMP JUMPDEST STOP JUMPDEST PUSH2 0x246 PUSH1 0x4 DUP1 CALLDATASIZE SUB DUP2 ADD SWAP1 PUSH2 0x241 SWAP2 SWAP1 PUSH2 0x13FE JUMP JUMPDEST PUSH2 0xFA7 JUMP JUMPDEST PUSH1 0x40 MLOAD PUSH2 0x253 SWAP2 SWAP1 PUSH2 0x1304 JUMP JUMPDEST PUSH1 0x40 MLOAD DUP1 SWAP2 SUB SWAP1 RETURN JUMPDEST PUSH2 0x264 PUSH2 0xFBF JUMP JUMPDEST PUSH1 0x40 MLOAD PUSH2 0x271 SWAP2 SWAP1 PUSH2 0x148A JUMP JUMPDEST PUSH1 0x40 MLOAD DUP1 SWAP2 SUB SWAP1 RETURN JUMPDEST PUSH1 0x0 DUP1 SLOAD SWAP1 PUSH2 0x100 EXP SWAP1 DIV PUSH20 0xFFFFFFFFFFFFFFFFFFFFFFFFFFFFFFFFFFFFFFFF AND PUSH20 0xFFFFFFFFFFFFFFFFFFFFFFFFFFFFFFFFFFFFFFFF AND PUSH4 0x23B872DD CALLER ADDRESS DUP5 PUSH1 0x40 MLOAD DUP5 PUSH4 0xFFFFFFFF AND PUSH1 0xE0 SHL DUP2 MSTORE PUSH1 0x4 ADD PUSH2 0x2D7 SWAP4 SWAP3 SWAP2 SWAP1 PUSH2 0x14A5 JUMP JUMPDEST PUSH1 0x20 PUSH1 0x40 MLOAD DUP1 DUP4 SUB DUP2 PUSH1 0x0 DUP8 GAS CALL ISZERO DUP1 ISZERO PUSH2 0x2F6 JUMPI RETURNDATASIZE PUSH1 0x0 DUP1 RETURNDATACOPY RETURNDATASIZE PUSH1 0x0 REVERT JUMPDEST POP POP POP POP PUSH1 0x40 MLOAD RETURNDATASIZE PUSH1 0x1F NOT PUSH1 0x1F DUP3 ADD AND DUP3 ADD DUP1 PUSH1 0x40 MSTORE POP DUP2 ADD SWAP1 PUSH2 0x31A SWAP2 SWAP1 PUSH2 0x1508 JUMP JUMPDEST PUSH2 0x359 JUMPI PUSH1 0x40 MLOAD PUSH32 0x8C379A000000000000000000000000000000000000000000000000000000000 DUP2 MSTORE PUSH1 0x4 ADD PUSH2 0x350 SWAP1 PUSH2 0x1581 JUMP JUMPDEST PUSH1 0x40 MLOAD DUP1 SWAP2 SUB SWAP1 REVERT JUMPDEST PUSH1 0x0 PUSH1 0x1 DUP4 DUP2 SLOAD DUP2 LT PUSH2 0x36F JUMPI PUSH2 0x36E PUSH2 0x15A1 JUMP JUMPDEST JUMPDEST SWAP1 PUSH1 0x0 MSTORE PUSH1 0x20 PUSH1 0x0 KECCAK256 SWAP1 PUSH1 0x6 MUL ADD SWAP1 POP DUP2 DUP2 PUSH1 0x5 ADD PUSH1 0x0 DUP3 DUP3 SLOAD PUSH2 0x393 SWAP2 SWAP1 PUSH2 0x15FF JUMP JUMPDEST SWAP3 POP POP DUP2 SWAP1 SSTORE POP PUSH32 0xDC0D26686E856E21CB2004FA5C0D79C922A19E94C9EB4B2328BA007CAE3E31AA DUP4 CALLER DUP5 PUSH1 0x40 MLOAD PUSH2 0x3CD SWAP4 SWAP3 SWAP2 SWAP1 PUSH2 0x1633 JUMP JUMPDEST PUSH1 0x40 MLOAD DUP1 SWAP2 SUB SWAP1 LOG1 POP POP POP JUMP JUMPDEST PUSH1 0x2 PUSH1 0x20 MSTORE DUP2 PUSH1 0x0 MSTORE PUSH1 0x40 PUSH1 0x0 KECCAK256 DUP2 DUP2 SLOAD DUP2 LT PUSH2 0x3F6 JUMPI PUSH1 0x0 DUP1 REVERT JUMPDEST SWAP1 PUSH1 0x0 MSTORE PUSH1 0x20 PUSH1 0x0 KECCAK256 SWAP1 PUSH1 0x4 MUL ADD PUSH1 0x0 SWAP2 POP SWAP2 POP POP DUP1 PUSH1 0x0 ADD PUSH1 0x0 SWAP1 SLOAD SWAP1 PUSH2 0x100 EXP SWAP1 DIV PUSH20 0xFFFFFFFFFFFFFFFFFFFFFFFFFFFFFFFFFFFFFFFF AND SWAP1 DUP1 PUSH1 0x1 ADD DUP1 SLOAD PUSH2 0x440 SWAP1 PUSH2 0x1699 JUMP JUMPDEST DUP1 PUSH1 0x1F ADD PUSH1 0x20 DUP1 SWAP2 DIV MUL PUSH1 0x20 ADD PUSH1 0x40 MLOAD SWAP1 DUP2 ADD PUSH1 0x40 MSTORE DUP1 SWAP3 SWAP2 SWAP1 DUP2 DUP2 MSTORE PUSH1 0x20 ADD DUP3 DUP1 SLOAD PUSH2 0x46C SWAP1 PUSH2 0x1699 JUMP JUMPDEST DUP1 ISZERO PUSH2 0x4B9 JUMPI DUP1 PUSH1 0x1F LT PUSH2 0x48E JUMPI PUSH2 0x100 DUP1 DUP4 SLOAD DIV MUL DUP4 MSTORE SWAP2 PUSH1 0x20 ADD SWAP2 PUSH2 0x4B9 JUMP JUMPDEST DUP3 ADD SWAP2 SWAP1 PUSH1 0x0 MSTORE PUSH1 0x20 PUSH1 0x0 KECCAK256 SWAP1 JUMPDEST DUP2 SLOAD DUP2 MSTORE SWAP1 PUSH1 0x1 ADD SWAP1 PUSH1 0x20 ADD DUP1 DUP4 GT PUSH2 0x49C JUMPI DUP3 SWAP1 SUB PUSH1 0x1F AND DUP3 ADD SWAP2 JUMPDEST POP POP POP POP POP SWAP1 DUP1 PUSH1 0x2 ADD SLOAD SWAP1 DUP1 PUSH1 0x3 ADD SLOAD SWAP1 POP DUP5 JUMP JUMPDEST PUSH1 0x1 DUP2 DUP2 SLOAD DUP2 LT PUSH2 0x4DF JUMPI PUSH1 0x0 DUP1 REVERT JUMPDEST SWAP1 PUSH1 0x0 MSTORE PUSH1 0x20 PUSH1 0x0 KECCAK256 SWAP1 PUSH1 0x6 MUL ADD PUSH1 0x0 SWAP2 POP SWAP1 POP DUP1 PUSH1 0x0 ADD PUSH1 0x0 SWAP1 SLOAD SWAP1 PUSH2 0x100 EXP SWAP1 DIV PUSH20 0xFFFFFFFFFFFFFFFFFFFFFFFFFFFFFFFFFFFFFFFF AND SWAP1 DUP1 PUSH1 0x1 ADD DUP1 SLOAD PUSH2 0x528 SWAP1 PUSH2 0x1699 JUMP JUMPDEST DUP1 PUSH1 0x1F ADD PUSH1 0x20 DUP1 SWAP2 DIV MUL PUSH1 0x20 ADD PUSH1 0x40 MLOAD SWAP1 DUP2 ADD PUSH1 0x40 MSTORE DUP1 SWAP3 SWAP2 SWAP1 DUP2 DUP2 MSTORE PUSH1 0x20 ADD DUP3 DUP1 SLOAD PUSH2 0x554 SWAP1 PUSH2 0x1699 JUMP JUMPDEST DUP1 ISZERO PUSH2 0x5A1 JUMPI DUP1 PUSH1 0x1F LT PUSH2 0x576 JUMPI PUSH2 0x100 DUP1 DUP4 SLOAD DIV MUL DUP4 MSTORE SWAP2 PUSH1 0x20 ADD SWAP2 PUSH2 0x5A1 JUMP JUMPDEST DUP3 ADD SWAP2 SWAP1 PUSH1 0x0 MSTORE PUSH1 0x20 PUSH1 0x0 KECCAK256 SWAP1 JUMPDEST DUP2 SLOAD DUP2 MSTORE SWAP1 PUSH1 0x1 ADD SWAP1 PUSH1 0x20 ADD DUP1 DUP4 GT PUSH2 0x584 JUMPI DUP3 SWAP1 SUB PUSH1 0x1F AND DUP3 ADD SWAP2 JUMPDEST POP POP POP POP POP SWAP1 DUP1 PUSH1 0x2 ADD SLOAD SWAP1 DUP1 PUSH1 0x3 ADD SLOAD SWAP1 DUP1 PUSH1 0x4 ADD PUSH1 0x0 SWAP1 SLOAD SWAP1 PUSH2 0x100 EXP SWAP1 DIV PUSH1 0xFF AND SWAP1 DUP1 PUSH1 0x5 ADD SLOAD SWAP1 POP DUP7 JUMP JUMPDEST PUSH1 0x0 PUSH1 0x1 DUP3 DUP2 SLOAD DUP2 LT PUSH2 0x5E6 JUMPI PUSH2 0x5E5 PUSH2 0x15A1 JUMP JUMPDEST JUMPDEST SWAP1 PUSH1 0x0 MSTORE PUSH1 0x20 PUSH1 0x0 KECCAK256 SWAP1 PUSH1 0x6 MUL ADD SWAP1 POP DUP1 PUSH1 0x4 ADD PUSH1 0x0 SWAP1 SLOAD SWAP1 PUSH2 0x100 EXP SWAP1 DIV PUSH1 0xFF AND ISZERO PUSH2 0x648 JUMPI PUSH1 0x40 MLOAD PUSH32 0x8C379A000000000000000000000000000000000000000000000000000000000 DUP2 MSTORE PUSH1 0x4 ADD PUSH2 0x63F SWAP1 PUSH2 0x1716 JUMP JUMPDEST PUSH1 0x40 MLOAD DUP1 SWAP2 SUB SWAP1 REVERT JUMPDEST PUSH1 0x4 SLOAD DUP2 PUSH1 0x3 ADD SLOAD PUSH2 0x65A SWAP2 SWAP1 PUSH2 0x15FF JUMP JUMPDEST TIMESTAMP GT PUSH2 0x69B JUMPI PUSH1 0x40 MLOAD PUSH32 0x8C379A000000000000000000000000000000000000000000000000000000000 DUP2 MSTORE PUSH1 0x4 ADD PUSH2 0x692 SWAP1 PUSH2 0x1782 JUMP JUMPDEST PUSH1 0x40 MLOAD DUP1 SWAP2 SUB SWAP1 REVERT JUMPDEST PUSH1 0x0 DUP1 SLOAD SWAP1 PUSH2 0x100 EXP SWAP1 DIV PUSH20 0xFFFFFFFFFFFFFFFFFFFFFFFFFFFFFFFFFFFFFFFF AND PUSH20 0xFFFFFFFFFFFFFFFFFFFFFFFFFFFFFFFFFFFFFFFF AND PUSH4 0xA9059CBB DUP3 PUSH1 0x0 ADD PUSH1 0x0 SWAP1 SLOAD SWAP1 PUSH2 0x100 EXP SWAP1 DIV PUSH20 0xFFFFFFFFFFFFFFFFFFFFFFFFFFFFFFFFFFFFFFFF AND DUP4 PUSH1 0x2 ADD SLOAD PUSH1 0x40 MLOAD DUP4 PUSH4 0xFFFFFFFF AND PUSH1 0xE0 SHL DUP2 MSTORE PUSH1 0x4 ADD PUSH2 0x71E SWAP3 SWAP2 SWAP1 PUSH2 0x17A2 JUMP JUMPDEST PUSH1 0x20 PUSH1 0x40 MLOAD DUP1 DUP4 SUB DUP2 PUSH1 0x0 DUP8 GAS CALL ISZERO DUP1 ISZERO PUSH2 0x73D JUMPI RETURNDATASIZE PUSH1 0x0 DUP1 RETURNDATACOPY RETURNDATASIZE PUSH1 0x0 REVERT JUMPDEST POP POP POP POP PUSH1 0x40 MLOAD RETURNDATASIZE PUSH1 0x1F NOT PUSH1 0x1F DUP3 ADD AND DUP3 ADD DUP1 PUSH1 0x40 MSTORE POP DUP2 ADD SWAP1 PUSH2 0x761 SWAP2 SWAP1 PUSH2 0x1508 JUMP JUMPDEST POP PUSH1 0x1 DUP2 PUSH1 0x4 ADD PUSH1 0x0 PUSH2 0x100 EXP DUP2 SLOAD DUP2 PUSH1 0xFF MUL NOT AND SWAP1 DUP4 ISZERO ISZERO MUL OR SWAP1 SSTORE POP POP POP JUMP JUMPDEST PUSH1 0x0 DUP1 SLOAD SWAP1 PUSH2 0x100 EXP SWAP1 DIV PUSH20 0xFFFFFFFFFFFFFFFFFFFFFFFFFFFFFFFFFFFFFFFF AND PUSH20 0xFFFFFFFFFFFFFFFFFFFFFFFFFFFFFFFFFFFFFFFF AND PUSH4 0x23B872DD CALLER ADDRESS DUP5 PUSH1 0x40 MLOAD DUP5 PUSH4 0xFFFFFFFF AND PUSH1 0xE0 SHL DUP2 MSTORE PUSH1 0x4 ADD PUSH2 0x7E0 SWAP4 SWAP3 SWAP2 SWAP1 PUSH2 0x14A5 JUMP JUMPDEST PUSH1 0x20 PUSH1 0x40 MLOAD DUP1 DUP4 SUB DUP2 PUSH1 0x0 DUP8 GAS CALL ISZERO DUP1 ISZERO PUSH2 0x7FF JUMPI RETURNDATASIZE PUSH1 0x0 DUP1 RETURNDATACOPY RETURNDATASIZE PUSH1 0x0 REVERT JUMPDEST POP POP POP POP PUSH1 0x40 MLOAD RETURNDATASIZE PUSH1 0x1F NOT PUSH1 0x1F DUP3 ADD AND DUP3 ADD DUP1 PUSH1 0x40 MSTORE POP DUP2 ADD SWAP1 PUSH2 0x823 SWAP2 SWAP1 PUSH2 0x1508 JUMP JUMPDEST PUSH2 0x862 JUMPI PUSH1 0x40 MLOAD PUSH32 0x8C379A000000000000000000000000000000000000000000000000000000000 DUP2 MSTORE PUSH1 0x4 ADD PUSH2 0x859 SWAP1 PUSH2 0x1581 JUMP JUMPDEST PUSH1 0x40 MLOAD DUP1 SWAP2 SUB SWAP1 REVERT JUMPDEST PUSH1 0x0 PUSH1 0x1 DUP1 SLOAD SWAP1 POP SWAP1 POP PUSH1 0x1 PUSH1 0x40 MLOAD DUP1 PUSH1 0xC0 ADD PUSH1 0x40 MSTORE DUP1 CALLER PUSH20 0xFFFFFFFFFFFFFFFFFFFFFFFFFFFFFFFFFFFFFFFF AND DUP2 MSTORE PUSH1 0x20 ADD DUP7 DUP7 DUP1 DUP1 PUSH1 0x1F ADD PUSH1 0x20 DUP1 SWAP2 DIV MUL PUSH1 0x20 ADD PUSH1 0x40 MLOAD SWAP1 DUP2 ADD PUSH1 0x40 MSTORE DUP1 SWAP4 SWAP3 SWAP2 SWAP1 DUP2 DUP2 MSTORE PUSH1 0x20 ADD DUP4 DUP4 DUP1 DUP3 DUP5 CALLDATACOPY PUSH1 0x0 DUP2 DUP5 ADD MSTORE PUSH1 0x1F NOT PUSH1 0x1F DUP3 ADD AND SWAP1 POP DUP1 DUP4 ADD SWAP3 POP POP POP POP POP POP POP DUP2 MSTORE PUSH1 0x20 ADD DUP5 DUP2 MSTORE PUSH1 0x20 ADD TIMESTAMP DUP2 MSTORE PUSH1 0x20 ADD PUSH1 0x0 ISZERO ISZERO DUP2 MSTORE PUSH1 0x20 ADD PUSH1 0x0 DUP2 MSTORE POP SWAP1 DUP1 PUSH1 0x1 DUP2 SLOAD ADD DUP1 DUP3 SSTORE DUP1 SWAP2 POP POP PUSH1 0x1 SWAP1 SUB SWAP1 PUSH1 0x0 MSTORE PUSH1 0x20 PUSH1 0x0 KECCAK256 SWAP1 PUSH1 0x6 MUL ADD PUSH1 0x0 SWAP1 SWAP2 SWAP1 SWAP2 SWAP1 SWAP2 POP PUSH1 0x0 DUP3 ADD MLOAD DUP2 PUSH1 0x0 ADD PUSH1 0x0 PUSH2 0x100 EXP DUP2 SLOAD DUP2 PUSH20 0xFFFFFFFFFFFFFFFFFFFFFFFFFFFFFFFFFFFFFFFF MUL NOT AND SWAP1 DUP4 PUSH20 0xFFFFFFFFFFFFFFFFFFFFFFFFFFFFFFFFFFFFFFFF AND MUL OR SWAP1 SSTORE POP PUSH1 0x20 DUP3 ADD MLOAD DUP2 PUSH1 0x1 ADD SWAP1 DUP2 PUSH2 0x97E SWAP2 SWAP1 PUSH2 0x199C JUMP JUMPDEST POP PUSH1 0x40 DUP3 ADD MLOAD DUP2 PUSH1 0x2 ADD SSTORE PUSH1 0x60 DUP3 ADD MLOAD DUP2 PUSH1 0x3 ADD SSTORE PUSH1 0x80 DUP3 ADD MLOAD DUP2 PUSH1 0x4 ADD PUSH1 0x0 PUSH2 0x100 EXP DUP2 SLOAD DUP2 PUSH1 0xFF MUL NOT AND SWAP1 DUP4 ISZERO ISZERO MUL OR SWAP1 SSTORE POP PUSH1 0xA0 DUP3 ADD MLOAD DUP2 PUSH1 0x5 ADD SSTORE POP POP PUSH32 0x5F901914DAF8CE84A45E4A2457C3FA7AE0A48A48AC198AF7F1B419AD6902A5CE DUP2 CALLER DUP7 DUP7 DUP7 PUSH1 0x40 MLOAD PUSH2 0x9F6 SWAP6 SWAP5 SWAP4 SWAP3 SWAP2 SWAP1 PUSH2 0x1AAA JUMP JUMPDEST PUSH1 0x40 MLOAD DUP1 SWAP2 SUB SWAP1 LOG1 POP POP POP POP JUMP JUMPDEST PUSH1 0x5 SLOAD DUP2 JUMP JUMPDEST PUSH1 0x4 SLOAD DUP2 JUMP JUMPDEST PUSH1 0x0 PUSH1 0x1 DUP1 SLOAD SWAP1 POP SWAP1 POP SWAP1 JUMP JUMPDEST PUSH1 0x4 SLOAD PUSH1 0x1 DUP5 DUP2 SLOAD DUP2 LT PUSH2 0xA34 JUMPI PUSH2 0xA33 PUSH2 0x15A1 JUMP JUMPDEST JUMPDEST SWAP1 PUSH1 0x0 MSTORE PUSH1 0x20 PUSH1 0x0 KECCAK256 SWAP1 PUSH1 0x6 MUL ADD PUSH1 0x3 ADD SLOAD PUSH2 0xA50 SWAP2 SWAP1 PUSH2 0x15FF JUMP JUMPDEST TIMESTAMP GT ISZERO PUSH2 0xA92 JUMPI PUSH1 0x40 MLOAD PUSH32 0x8C379A000000000000000000000000000000000000000000000000000000000 DUP2 MSTORE PUSH1 0x4 ADD PUSH2 0xA89 SWAP1 PUSH2 0x1B44 JUMP JUMPDEST PUSH1 0x40 MLOAD DUP1 SWAP2 SUB SWAP1 REVERT JUMPDEST PUSH1 0x0 DUP1 SLOAD SWAP1 PUSH2 0x100 EXP SWAP1 DIV PUSH20 0xFFFFFFFFFFFFFFFFFFFFFFFFFFFFFFFFFFFFFFFF AND PUSH20 0xFFFFFFFFFFFFFFFFFFFFFFFFFFFFFFFFFFFFFFFF AND PUSH4 0x23B872DD CALLER ADDRESS DUP5 PUSH1 0x40 MLOAD DUP5 PUSH4 0xFFFFFFFF AND PUSH1 0xE0 SHL DUP2 MSTORE PUSH1 0x4 ADD PUSH2 0xAEF SWAP4 SWAP3 SWAP2 SWAP1 PUSH2 0x14A5 JUMP JUMPDEST PUSH1 0x20 PUSH1 0x40 MLOAD DUP1 DUP4 SUB DUP2 PUSH1 0x0 DUP8 GAS CALL ISZERO DUP1 ISZERO PUSH2 0xB0E JUMPI RETURNDATASIZE PUSH1 0x0 DUP1 RETURNDATACOPY RETURNDATASIZE PUSH1 0x0 REVERT JUMPDEST POP POP POP POP PUSH1 0x40 MLOAD RETURNDATASIZE PUSH1 0x1F NOT PUSH1 0x1F DUP3 ADD AND DUP3 ADD DUP1 PUSH1 0x40 MSTORE POP DUP2 ADD SWAP1 PUSH2 0xB32 SWAP2 SWAP1 PUSH2 0x1508 JUMP JUMPDEST PUSH2 0xB71 JUMPI PUSH1 0x40 MLOAD PUSH32 0x8C379A000000000000000000000000000000000000000000000000000000000 DUP2 MSTORE PUSH1 0x4 ADD PUSH2 0xB68 SWAP1 PUSH2 0x1581 JUMP JUMPDEST PUSH1 0x40 MLOAD DUP1 SWAP2 SUB SWAP1 REVERT JUMPDEST PUSH1 0x0 PUSH1 0x2 PUSH1 0x0 DUP6 DUP2 MSTORE PUSH1 0x20 ADD SWAP1 DUP2 MSTORE PUSH1 0x20 ADD PUSH1 0x0 KECCAK256 DUP4 DUP2 SLOAD DUP2 LT PUSH2 0xB98 JUMPI PUSH2 0xB97 PUSH2 0x15A1 JUMP JUMPDEST JUMPDEST SWAP1 PUSH1 0x0 MSTORE PUSH1 0x20 PUSH1 0x0 KECCAK256 SWAP1 PUSH1 0x4 MUL ADD SWAP1 POP DUP2 DUP2 PUSH1 0x2 ADD PUSH1 0x0 DUP3 DUP3 SLOAD PUSH2 0xBBC SWAP2 SWAP1 PUSH2 0x15FF JUMP JUMPDEST SWAP3 POP POP DUP2 SWAP1 SSTORE POP PUSH32 0x5994F7E79E43903397536164B67554BAEA03717B995B95D1A8CABDBB62A3AFC5 DUP5 DUP5 CALLER DUP6 PUSH1 0x40 MLOAD PUSH2 0xBF8 SWAP5 SWAP4 SWAP3 SWAP2 SWAP1 PUSH2 0x1B64 JUMP JUMPDEST PUSH1 0x40 MLOAD DUP1 SWAP2 SUB SWAP1 LOG1 POP POP POP POP JUMP JUMPDEST PUSH1 0x5 SLOAD TIMESTAMP GT PUSH2 0xC4A JUMPI PUSH1 0x40 MLOAD PUSH32 0x8C379A000000000000000000000000000000000000000000000000000000000 DUP2 MSTORE PUSH1 0x4 ADD PUSH2 0xC41 SWAP1 PUSH2 0x1C1B JUMP JUMPDEST PUSH1 0x40 MLOAD DUP1 SWAP2 SUB SWAP1 REVERT JUMPDEST PUSH1 0x0 PUSH1 0x3 PUSH1 0x0 CALLER PUSH20 0xFFFFFFFFFFFFFFFFFFFFFFFFFFFFFFFFFFFFFFFF AND PUSH20 0xFFFFFFFFFFFFFFFFFFFFFFFFFFFFFFFFFFFFFFFF AND DUP2 MSTORE PUSH1 0x20 ADD SWAP1 DUP2 MSTORE PUSH1 0x20 ADD PUSH1 0x0 KECCAK256 SLOAD SWAP1 POP PUSH1 0x0 DUP2 GT PUSH2 0xCD1 JUMPI PUSH1 0x40 MLOAD PUSH32 0x8C379A000000000000000000000000000000000000000000000000000000000 DUP2 MSTORE PUSH1 0x4 ADD PUSH2 0xCC8 SWAP1 PUSH2 0x1C87 JUMP JUMPDEST PUSH1 0x40 MLOAD DUP1 SWAP2 SUB SWAP1 REVERT JUMPDEST PUSH1 0x0 DUP1 SLOAD SWAP1 PUSH2 0x100 EXP SWAP1 DIV PUSH20 0xFFFFFFFFFFFFFFFFFFFFFFFFFFFFFFFFFFFFFFFF AND PUSH20 0xFFFFFFFFFFFFFFFFFFFFFFFFFFFFFFFFFFFFFFFF AND PUSH4 0xA9059CBB CALLER PUSH1 0x2 DUP5 PUSH2 0xD1B SWAP2 SWAP1 PUSH2 0x1CA7 JUMP JUMPDEST PUSH1 0x40 MLOAD DUP4 PUSH4 0xFFFFFFFF AND PUSH1 0xE0 SHL DUP2 MSTORE PUSH1 0x4 ADD PUSH2 0xD38 SWAP3 SWAP2 SWAP1 PUSH2 0x17A2 JUMP JUMPDEST PUSH1 0x20 PUSH1 0x40 MLOAD DUP1 DUP4 SUB DUP2 PUSH1 0x0 DUP8 GAS CALL ISZERO DUP1 ISZERO PUSH2 0xD57 JUMPI RETURNDATASIZE PUSH1 0x0 DUP1 RETURNDATACOPY RETURNDATASIZE PUSH1 0x0 REVERT JUMPDEST POP POP POP POP PUSH1 0x40 MLOAD RETURNDATASIZE PUSH1 0x1F NOT PUSH1 0x1F DUP3 ADD AND DUP3 ADD DUP1 PUSH1 0x40 MSTORE POP DUP2 ADD SWAP1 PUSH2 0xD7B SWAP2 SWAP1 PUSH2 0x1508 JUMP JUMPDEST POP PUSH1 0x0 PUSH1 0x3 PUSH1 0x0 CALLER PUSH20 0xFFFFFFFFFFFFFFFFFFFFFFFFFFFFFFFFFFFFFFFF AND PUSH20 0xFFFFFFFFFFFFFFFFFFFFFFFFFFFFFFFFFFFFFFFF AND DUP2 MSTORE PUSH1 0x20 ADD SWAP1 DUP2 MSTORE PUSH1 0x20 ADD PUSH1 0x0 KECCAK256 DUP2 SWAP1 SSTORE POP POP JUMP JUMPDEST PUSH1 0x4 SLOAD PUSH1 0x1 DUP5 DUP2 SLOAD DUP2 LT PUSH2 0xDDB JUMPI PUSH2 0xDDA PUSH2 0x15A1 JUMP JUMPDEST JUMPDEST SWAP1 PUSH1 0x0 MSTORE PUSH1 0x20 PUSH1 0x0 KECCAK256 SWAP1 PUSH1 0x6 MUL ADD PUSH1 0x3 ADD SLOAD PUSH2 0xDF7 SWAP2 SWAP1 PUSH2 0x15FF JUMP JUMPDEST TIMESTAMP GT ISZERO PUSH2 0xE39 JUMPI PUSH1 0x40 MLOAD PUSH32 0x8C379A000000000000000000000000000000000000000000000000000000000 DUP2 MSTORE PUSH1 0x4 ADD PUSH2 0xE30 SWAP1 PUSH2 0x1D35 JUMP JUMPDEST PUSH1 0x40 MLOAD DUP1 SWAP2 SUB SWAP1 REVERT JUMPDEST PUSH1 0x2 PUSH1 0x0 DUP5 DUP2 MSTORE PUSH1 0x20 ADD SWAP1 DUP2 MSTORE PUSH1 0x20 ADD PUSH1 0x0 KECCAK256 PUSH1 0x40 MLOAD DUP1 PUSH1 0x80 ADD PUSH1 0x40 MSTORE DUP1 CALLER PUSH20 0xFFFFFFFFFFFFFFFFFFFFFFFFFFFFFFFFFFFFFFFF AND DUP2 MSTORE PUSH1 0x20 ADD DUP5 DUP5 DUP1 DUP1 PUSH1 0x1F ADD PUSH1 0x20 DUP1 SWAP2 DIV MUL PUSH1 0x20 ADD PUSH1 0x40 MLOAD SWAP1 DUP2 ADD PUSH1 0x40 MSTORE DUP1 SWAP4 SWAP3 SWAP2 SWAP1 DUP2 DUP2 MSTORE PUSH1 0x20 ADD DUP4 DUP4 DUP1 DUP3 DUP5 CALLDATACOPY PUSH1 0x0 DUP2 DUP5 ADD MSTORE PUSH1 0x1F NOT PUSH1 0x1F DUP3 ADD AND SWAP1 POP DUP1 DUP4 ADD SWAP3 POP POP POP POP POP POP POP DUP2 MSTORE PUSH1 0x20 ADD PUSH1 0x0 DUP2 MSTORE PUSH1 0x20 ADD PUSH1 0x0 DUP2 MSTORE POP SWAP1 DUP1 PUSH1 0x1 DUP2 SLOAD ADD DUP1 DUP3 SSTORE DUP1 SWAP2 POP POP PUSH1 0x1 SWAP1 SUB SWAP1 PUSH1 0x0 MSTORE PUSH1 0x20 PUSH1 0x0 KECCAK256 SWAP1 PUSH1 0x4 MUL ADD PUSH1 0x0 SWAP1 SWAP2 SWAP1 SWAP2 SWAP1 SWAP2 POP PUSH1 0x0 DUP3 ADD MLOAD DUP2 PUSH1 0x0 ADD PUSH1 0x0 PUSH2 0x100 EXP DUP2 SLOAD DUP2 PUSH20 0xFFFFFFFFFFFFFFFFFFFFFFFFFFFFFFFFFFFFFFFF MUL NOT AND SWAP1 DUP4 PUSH20 0xFFFFFFFFFFFFFFFFFFFFFFFFFFFFFFFFFFFFFFFF AND MUL OR SWAP1 SSTORE POP PUSH1 0x20 DUP3 ADD MLOAD DUP2 PUSH1 0x1 ADD SWAP1 DUP2 PUSH2 0xF4E SWAP2 SWAP1 PUSH2 0x199C JUMP JUMPDEST POP PUSH1 0x40 DUP3 ADD MLOAD DUP2 PUSH1 0x2 ADD SSTORE PUSH1 0x60 DUP3 ADD MLOAD DUP2 PUSH1 0x3 ADD SSTORE POP POP PUSH32 0x9792842A8EC27CC6000E36A75350D840BAA9DCFCC21F160CBDE1405B0D703AA3 DUP4 CALLER DUP5 DUP5 PUSH1 0x40 MLOAD PUSH2 0xF9A SWAP5 SWAP4 SWAP3 SWAP2 SWAP1 PUSH2 0x1D55 JUMP JUMPDEST PUSH1 0x40 MLOAD DUP1 SWAP2 SUB SWAP1 LOG1 POP POP POP JUMP JUMPDEST PUSH1 0x3 PUSH1 0x20 MSTORE DUP1 PUSH1 0x0 MSTORE PUSH1 0x40 PUSH1 0x0 KECCAK256 PUSH1 0x0 SWAP2 POP SWAP1 POP SLOAD DUP2 JUMP JUMPDEST PUSH1 0x0 DUP1 SLOAD SWAP1 PUSH2 0x100 EXP SWAP1 DIV PUSH20 0xFFFFFFFFFFFFFFFFFFFFFFFFFFFFFFFFFFFFFFFF AND DUP2 JUMP JUMPDEST PUSH1 0x0 DUP1 REVERT JUMPDEST PUSH1 0x0 DUP1 REVERT JUMPDEST PUSH1 0x0 DUP2 SWAP1 POP SWAP2 SWAP1 POP JUMP JUMPDEST PUSH2 0x1000 DUP2 PUSH2 0xFED JUMP JUMPDEST DUP2 EQ PUSH2 0x100B JUMPI PUSH1 0x0 DUP1 REVERT JUMPDEST POP JUMP JUMPDEST PUSH1 0x0 DUP2 CALLDATALOAD SWAP1 POP PUSH2 0x101D DUP2 PUSH2 0xFF7 JUMP JUMPDEST SWAP3 SWAP2 POP POP JUMP JUMPDEST PUSH1 0x0 DUP1 PUSH1 0x40 DUP4 DUP6 SUB SLT ISZERO PUSH2 0x103A JUMPI PUSH2 0x1039 PUSH2 0xFE3 JUMP JUMPDEST JUMPDEST PUSH1 0x0 PUSH2 0x1048 DUP6 DUP3 DUP7 ADD PUSH2 0x100E JUMP JUMPDEST SWAP3 POP POP PUSH1 0x20 PUSH2 0x1059 DUP6 DUP3 DUP7 ADD PUSH2 0x100E JUMP JUMPDEST SWAP2 POP POP SWAP3 POP SWAP3 SWAP1 POP JUMP JUMPDEST PUSH1 0x0 PUSH20 0xFFFFFFFFFFFFFFFFFFFFFFFFFFFFFFFFFFFFFFFF DUP3 AND SWAP1 POP SWAP2 SWAP1 POP JUMP JUMPDEST PUSH1 0x0 PUSH2 0x108E DUP3 PUSH2 0x1063 JUMP JUMPDEST SWAP1 POP SWAP2 SWAP1 POP JUMP JUMPDEST PUSH2 0x109E DUP2 PUSH2 0x1083 JUMP JUMPDEST DUP3 MSTORE POP POP JUMP JUMPDEST PUSH1 0x0 DUP2 MLOAD SWAP1 POP SWAP2 SWAP1 POP JUMP JUMPDEST PUSH1 0x0 DUP3 DUP3 MSTORE PUSH1 0x20 DUP3 ADD SWAP1 POP SWAP3 SWAP2 POP POP JUMP JUMPDEST PUSH1 0x0 JUMPDEST DUP4 DUP2 LT ISZERO PUSH2 0x10DE JUMPI DUP1 DUP3 ADD MLOAD DUP2 DUP5 ADD MSTORE PUSH1 0x20 DUP2 ADD SWAP1 POP PUSH2 0x10C3 JUMP JUMPDEST PUSH1 0x0 DUP5 DUP5 ADD MSTORE POP POP POP POP JUMP JUMPDEST PUSH1 0x0 PUSH1 0x1F NOT PUSH1 0x1F DUP4 ADD AND SWAP1 POP SWAP2 SWAP1 POP JUMP JUMPDEST PUSH1 0x0 PUSH2 0x1106 DUP3 PUSH2 0x10A4 JUMP JUMPDEST PUSH2 0x1110 DUP2 DUP6 PUSH2 0x10AF JUMP JUMPDEST SWAP4 POP PUSH2 0x1120 DUP2 DUP6 PUSH1 0x20 DUP7 ADD PUSH2 0x10C0 JUMP JUMPDEST PUSH2 0x1129 DUP2 PUSH2 0x10EA JUMP JUMPDEST DUP5 ADD SWAP2 POP POP SWAP3 SWAP2 POP POP JUMP JUMPDEST PUSH2 0x113D DUP2 PUSH2 0xFED JUMP JUMPDEST DUP3 MSTORE POP POP JUMP JUMPDEST PUSH1 0x0 PUSH1 0x80 DUP3 ADD SWAP1 POP PUSH2 0x1158 PUSH1 0x0 DUP4 ADD DUP8 PUSH2 0x1095 JUMP JUMPDEST DUP2 DUP2 SUB PUSH1 0x20 DUP4 ADD MSTORE PUSH2 0x116A DUP2 DUP7 PUSH2 0x10FB JUMP JUMPDEST SWAP1 POP PUSH2 0x1179 PUSH1 0x40 DUP4 ADD DUP6 PUSH2 0x1134 JUMP JUMPDEST PUSH2 0x1186 PUSH1 0x60 DUP4 ADD DUP5 PUSH2 0x1134 JUMP JUMPDEST SWAP6 SWAP5 POP POP POP POP POP JUMP JUMPDEST PUSH1 0x0 PUSH1 0x20 DUP3 DUP5 SUB SLT ISZERO PUSH2 0x11A5 JUMPI PUSH2 0x11A4 PUSH2 0xFE3 JUMP JUMPDEST JUMPDEST PUSH1 0x0 PUSH2 0x11B3 DUP5 DUP3 DUP6 ADD PUSH2 0x100E JUMP JUMPDEST SWAP2 POP POP SWAP3 SWAP2 POP POP JUMP JUMPDEST PUSH1 0x0 DUP2 ISZERO ISZERO SWAP1 POP SWAP2 SWAP1 POP JUMP JUMPDEST PUSH2 0x11D1 DUP2 PUSH2 0x11BC JUMP JUMPDEST DUP3 MSTORE POP POP JUMP JUMPDEST PUSH1 0x0 PUSH1 0xC0 DUP3 ADD SWAP1 POP PUSH2 0x11EC PUSH1 0x0 DUP4 ADD DUP10 PUSH2 0x1095 JUMP JUMPDEST DUP2 DUP2 SUB PUSH1 0x20 DUP4 ADD MSTORE PUSH2 0x11FE DUP2 DUP9 PUSH2 0x10FB JUMP JUMPDEST SWAP1 POP PUSH2 0x120D PUSH1 0x40 DUP4 ADD DUP8 PUSH2 0x1134 JUMP JUMPDEST PUSH2 0x121A PUSH1 0x60 DUP4 ADD DUP7 PUSH2 0x1134 JUMP JUMPDEST PUSH2 0x1227 PUSH1 0x80 DUP4 ADD DUP6 PUSH2 0x11C8 JUMP JUMPDEST PUSH2 0x1234 PUSH1 0xA0 DUP4 ADD DUP5 PUSH2 0x1134 JUMP JUMPDEST SWAP8 SWAP7 POP POP POP POP POP POP POP JUMP JUMPDEST PUSH1 0x0 DUP1 REVERT JUMPDEST PUSH1 0x0 DUP1 REVERT JUMPDEST PUSH1 0x0 DUP1 REVERT JUMPDEST PUSH1 0x0 DUP1 DUP4 PUSH1 0x1F DUP5 ADD SLT PUSH2 0x1264 JUMPI PUSH2 0x1263 PUSH2 0x123F JUMP JUMPDEST JUMPDEST DUP3 CALLDATALOAD SWAP1 POP PUSH8 0xFFFFFFFFFFFFFFFF DUP2 GT ISZERO PUSH2 0x1281 JUMPI PUSH2 0x1280 PUSH2 0x1244 JUMP JUMPDEST JUMPDEST PUSH1 0x20 DUP4 ADD SWAP2 POP DUP4 PUSH1 0x1 DUP3 MUL DUP4 ADD GT ISZERO PUSH2 0x129D JUMPI PUSH2 0x129C PUSH2 0x1249 JUMP JUMPDEST JUMPDEST SWAP3 POP SWAP3 SWAP1 POP JUMP JUMPDEST PUSH1 0x0 DUP1 PUSH1 0x0 PUSH1 0x40 DUP5 DUP7 SUB SLT ISZERO PUSH2 0x12BD JUMPI PUSH2 0x12BC PUSH2 0xFE3 JUMP JUMPDEST JUMPDEST PUSH1 0x0 DUP5 ADD CALLDATALOAD PUSH8 0xFFFFFFFFFFFFFFFF DUP2 GT ISZERO PUSH2 0x12DB JUMPI PUSH2 0x12DA PUSH2 0xFE8 JUMP JUMPDEST JUMPDEST PUSH2 0x12E7 DUP7 DUP3 DUP8 ADD PUSH2 0x124E JUMP JUMPDEST SWAP4 POP SWAP4 POP POP PUSH1 0x20 PUSH2 0x12FA DUP7 DUP3 DUP8 ADD PUSH2 0x100E JUMP JUMPDEST SWAP2 POP POP SWAP3 POP SWAP3 POP SWAP3 JUMP JUMPDEST PUSH1 0x0 PUSH1 0x20 DUP3 ADD SWAP1 POP PUSH2 0x1319 PUSH1 0x0 DUP4 ADD DUP5 PUSH2 0x1134 JUMP JUMPDEST SWAP3 SWAP2 POP POP JUMP JUMPDEST PUSH1 0x0 DUP1 PUSH1 0x0 PUSH1 0x60 DUP5 DUP7 SUB SLT ISZERO PUSH2 0x1338 JUMPI PUSH2 0x1337 PUSH2 0xFE3 JUMP JUMPDEST JUMPDEST PUSH1 0x0 PUSH2 0x1346 DUP7 DUP3 DUP8 ADD PUSH2 0x100E JUMP JUMPDEST SWAP4 POP POP PUSH1 0x20 PUSH2 0x1357 DUP7 DUP3 DUP8 ADD PUSH2 0x100E JUMP JUMPDEST SWAP3 POP POP PUSH1 0x40 PUSH2 0x1368 DUP7 DUP3 DUP8 ADD PUSH2 0x100E JUMP JUMPDEST SWAP2 POP POP SWAP3 POP SWAP3 POP SWAP3 JUMP JUMPDEST PUSH1 0x0 DUP1 PUSH1 0x0 PUSH1 0x40 DUP5 DUP7 SUB SLT ISZERO PUSH2 0x138B JUMPI PUSH2 0x138A PUSH2 0xFE3 JUMP JUMPDEST JUMPDEST PUSH1 0x0 PUSH2 0x1399 DUP7 DUP3 DUP8 ADD PUSH2 0x100E JUMP JUMPDEST SWAP4 POP POP PUSH1 0x20 DUP5 ADD CALLDATALOAD PUSH8 0xFFFFFFFFFFFFFFFF DUP2 GT ISZERO PUSH2 0x13BA JUMPI PUSH2 0x13B9 PUSH2 0xFE8 JUMP JUMPDEST JUMPDEST PUSH2 0x13C6 DUP7 DUP3 DUP8 ADD PUSH2 0x124E JUMP JUMPDEST SWAP3 POP SWAP3 POP POP SWAP3 POP SWAP3 POP SWAP3 JUMP JUMPDEST PUSH2 0x13DB DUP2 PUSH2 0x1083 JUMP JUMPDEST DUP2 EQ PUSH2 0x13E6 JUMPI PUSH1 0x0 DUP1 REVERT JUMPDEST POP JUMP JUMPDEST PUSH1 0x0 DUP2 CALLDATALOAD SWAP1 POP PUSH2 0x13F8 DUP2 PUSH2 0x13D2 JUMP JUMPDEST SWAP3 SWAP2 POP POP JUMP JUMPDEST PUSH1 0x0 PUSH1 0x20 DUP3 DUP5 SUB SLT ISZERO PUSH2 0x1414 JUMPI PUSH2 0x1413 PUSH2 0xFE3 JUMP JUMPDEST JUMPDEST PUSH1 0x0 PUSH2 0x1422 DUP5 DUP3 DUP6 ADD PUSH2 0x13E9 JUMP JUMPDEST SWAP2 POP POP SWAP3 SWAP2 POP POP JUMP JUMPDEST PUSH1 0x0 DUP2 SWAP1 POP SWAP2 SWAP1 POP JUMP JUMPDEST PUSH1 0x0 PUSH2 0x1450 PUSH2 0x144B PUSH2 0x1446 DUP5 PUSH2 0x1063 JUMP JUMPDEST PUSH2 0x142B JUMP JUMPDEST PUSH2 0x1063 JUMP JUMPDEST SWAP1 POP SWAP2 SWAP1 POP JUMP JUMPDEST PUSH1 0x0 PUSH2 0x1462 DUP3 PUSH2 0x1435 JUMP JUMPDEST SWAP1 POP SWAP2 SWAP1 POP JUMP JUMPDEST PUSH1 0x0 PUSH2 0x1474 DUP3 PUSH2 0x1457 JUMP JUMPDEST SWAP1 POP SWAP2 SWAP1 POP JUMP JUMPDEST PUSH2 0x1484 DUP2 PUSH2 0x1469 JUMP JUMPDEST DUP3 MSTORE POP POP JUMP JUMPDEST PUSH1 0x0 PUSH1 0x20 DUP3 ADD SWAP1 POP PUSH2 0x149F PUSH1 0x0 DUP4 ADD DUP5 PUSH2 0x147B JUMP JUMPDEST SWAP3 SWAP2 POP POP JUMP JUMPDEST PUSH1 0x0 PUSH1 0x60 DUP3 ADD SWAP1 POP PUSH2 0x14BA PUSH1 0x0 DUP4 ADD DUP7 PUSH2 0x1095 JUMP JUMPDEST PUSH2 0x14C7 PUSH1 0x20 DUP4 ADD DUP6 PUSH2 0x1095 JUMP JUMPDEST PUSH2 0x14D4 PUSH1 0x40 DUP4 ADD DUP5 PUSH2 0x1134 JUMP JUMPDEST SWAP5 SWAP4 POP POP POP POP JUMP JUMPDEST PUSH2 0x14E5 DUP2 PUSH2 0x11BC JUMP JUMPDEST DUP2 EQ PUSH2 0x14F0 JUMPI PUSH1 0x0 DUP1 REVERT JUMPDEST POP JUMP JUMPDEST PUSH1 0x0 DUP2 MLOAD SWAP1 POP PUSH2 0x1502 DUP2 PUSH2 0x14DC JUMP JUMPDEST SWAP3 SWAP2 POP POP JUMP JUMPDEST PUSH1 0x0 PUSH1 0x20 DUP3 DUP5 SUB SLT ISZERO PUSH2 0x151E JUMPI PUSH2 0x151D PUSH2 0xFE3 JUMP JUMPDEST JUMPDEST PUSH1 0x0 PUSH2 0x152C DUP5 DUP3 DUP6 ADD PUSH2 0x14F3 JUMP JUMPDEST SWAP2 POP POP SWAP3 SWAP2 POP POP JUMP JUMPDEST PUSH32 0x4661696C656420746F207472616E7366657220746F6B656E7300000000000000 PUSH1 0x0 DUP3 ADD MSTORE POP JUMP JUMPDEST PUSH1 0x0 PUSH2 0x156B PUSH1 0x19 DUP4 PUSH2 0x10AF JUMP JUMPDEST SWAP2 POP PUSH2 0x1576 DUP3 PUSH2 0x1535 JUMP JUMPDEST PUSH1 0x20 DUP3 ADD SWAP1 POP SWAP2 SWAP1 POP JUMP JUMPDEST PUSH1 0x0 PUSH1 0x20 DUP3 ADD SWAP1 POP DUP2 DUP2 SUB PUSH1 0x0 DUP4 ADD MSTORE PUSH2 0x159A DUP2 PUSH2 0x155E JUMP JUMPDEST SWAP1 POP SWAP2 SWAP1 POP JUMP JUMPDEST PUSH32 0x4E487B7100000000000000000000000000000000000000000000000000000000 PUSH1 0x0 MSTORE PUSH1 0x32 PUSH1 0x4 MSTORE PUSH1 0x24 PUSH1 0x0 REVERT JUMPDEST PUSH32 0x4E487B7100000000000000000000000000000000000000000000000000000000 PUSH1 0x0 MSTORE PUSH1 0x11 PUSH1 0x4 MSTORE PUSH1 0x24 PUSH1 0x0 REVERT JUMPDEST PUSH1 0x0 PUSH2 0x160A DUP3 PUSH2 0xFED JUMP JUMPDEST SWAP2 POP PUSH2 0x1615 DUP4 PUSH2 0xFED JUMP JUMPDEST SWAP3 POP DUP3 DUP3 ADD SWAP1 POP DUP1 DUP3 GT ISZERO PUSH2 0x162D JUMPI PUSH2 0x162C PUSH2 0x15D0 JUMP JUMPDEST JUMPDEST SWAP3 SWAP2 POP POP JUMP JUMPDEST PUSH1 0x0 PUSH1 0x60 DUP3 ADD SWAP1 POP PUSH2 0x1648 PUSH1 0x0 DUP4 ADD DUP7 PUSH2 0x1134 JUMP JUMPDEST PUSH2 0x1655 PUSH1 0x20 DUP4 ADD DUP6 PUSH2 0x1095 JUMP JUMPDEST PUSH2 0x1662 PUSH1 0x40 DUP4 ADD DUP5 PUSH2 0x1134 JUMP JUMPDEST SWAP5 SWAP4 POP POP POP POP JUMP JUMPDEST PUSH32 0x4E487B7100000000000000000000000000000000000000000000000000000000 PUSH1 0x0 MSTORE PUSH1 0x22 PUSH1 0x4 MSTORE PUSH1 0x24 PUSH1 0x0 REVERT JUMPDEST PUSH1 0x0 PUSH1 0x2 DUP3 DIV SWAP1 POP PUSH1 0x1 DUP3 AND DUP1 PUSH2 0x16B1 JUMPI PUSH1 0x7F DUP3 AND SWAP2 POP JUMPDEST PUSH1 0x20 DUP3 LT DUP2 SUB PUSH2 0x16C4 JUMPI PUSH2 0x16C3 PUSH2 0x166A JUMP JUMPDEST JUMPDEST POP SWAP2 SWAP1 POP JUMP JUMPDEST PUSH32 0x426F756E747920616C726561647920636C61696D656400000000000000000000 PUSH1 0x0 DUP3 ADD MSTORE POP JUMP JUMPDEST PUSH1 0x0 PUSH2 0x1700 PUSH1 0x16 DUP4 PUSH2 0x10AF JUMP JUMPDEST SWAP2 POP PUSH2 0x170B DUP3 PUSH2 0x16CA JUMP JUMPDEST PUSH1 0x20 DUP3 ADD SWAP1 POP SWAP2 SWAP1 POP JUMP JUMPDEST PUSH1 0x0 PUSH1 0x20 DUP3 ADD SWAP1 POP DUP2 DUP2 SUB PUSH1 0x0 DUP4 ADD MSTORE PUSH2 0x172F DUP2 PUSH2 0x16F3 JUMP JUMPDEST SWAP1 POP SWAP2 SWAP1 POP JUMP JUMPDEST PUSH32 0x446561646C696E65206E6F742079657420706173736564000000000000000000 PUSH1 0x0 DUP3 ADD MSTORE POP JUMP JUMPDEST PUSH1 0x0 PUSH2 0x176C PUSH1 0x17 DUP4 PUSH2 0x10AF JUMP JUMPDEST SWAP2 POP PUSH2 0x1777 DUP3 PUSH2 0x1736 JUMP JUMPDEST PUSH1 0x20 DUP3 ADD SWAP1 POP SWAP2 SWAP1 POP JUMP JUMPDEST PUSH1 0x0 PUSH1 0x20 DUP3 ADD SWAP1 POP DUP2 DUP2 SUB PUSH1 0x0 DUP4 ADD MSTORE PUSH2 0x179B DUP2 PUSH2 0x175F JUMP JUMPDEST SWAP1 POP SWAP2 SWAP1 POP JUMP JUMPDEST PUSH1 0x0 PUSH1 0x40 DUP3 ADD SWAP1 POP PUSH2 0x17B7 PUSH1 0x0 DUP4 ADD DUP6 PUSH2 0x1095 JUMP JUMPDEST PUSH2 0x17C4 PUSH1 0x20 DUP4 ADD DUP5 PUSH2 0x1134 JUMP JUMPDEST SWAP4 SWAP3 POP POP POP JUMP JUMPDEST PUSH32 0x4E487B7100000000000000000000000000000000000000000000000000000000 PUSH1 0x0 MSTORE PUSH1 0x41 PUSH1 0x4 MSTORE PUSH1 0x24 PUSH1 0x0 REVERT JUMPDEST PUSH1 0x0 DUP2 SWAP1 POP DUP2 PUSH1 0x0 MSTORE PUSH1 0x20 PUSH1 0x0 KECCAK256 SWAP1 POP SWAP2 SWAP1 POP JUMP JUMPDEST PUSH1 0x0 PUSH1 0x20 PUSH1 0x1F DUP4 ADD DIV SWAP1 POP SWAP2 SWAP1 POP JUMP JUMPDEST PUSH1 0x0 DUP3 DUP3 SHL SWAP1 POP SWAP3 SWAP2 POP POP JUMP JUMPDEST PUSH1 0x0 PUSH1 0x8 DUP4 MUL PUSH2 0x185C PUSH32 0xFFFFFFFFFFFFFFFFFFFFFFFFFFFFFFFFFFFFFFFFFFFFFFFFFFFFFFFFFFFFFFFF DUP3 PUSH2 0x181F JUMP JUMPDEST PUSH2 0x1866 DUP7 DUP4 PUSH2 0x181F JUMP JUMPDEST SWAP6 POP DUP1 NOT DUP5 AND SWAP4 POP DUP1 DUP7 AND DUP5 OR SWAP3 POP POP POP SWAP4 SWAP3 POP POP POP JUMP JUMPDEST PUSH1 0x0 PUSH2 0x1899 PUSH2 0x1894 PUSH2 0x188F DUP5 PUSH2 0xFED JUMP JUMPDEST PUSH2 0x142B JUMP JUMPDEST PUSH2 0xFED JUMP JUMPDEST SWAP1 POP SWAP2 SWAP1 POP JUMP JUMPDEST PUSH1 0x0 DUP2 SWAP1 POP SWAP2 SWAP1 POP JUMP JUMPDEST PUSH2 0x18B3 DUP4 PUSH2 0x187E JUMP JUMPDEST PUSH2 0x18C7 PUSH2 0x18BF DUP3 PUSH2 0x18A0 JUMP JUMPDEST DUP5 DUP5 SLOAD PUSH2 0x182C JUMP JUMPDEST DUP3 SSTORE POP POP POP POP JUMP JUMPDEST PUSH1 0x0 SWAP1 JUMP JUMPDEST PUSH2 0x18DC PUSH2 0x18CF JUMP JUMPDEST PUSH2 0x18E7 DUP2 DUP5 DUP5 PUSH2 0x18AA JUMP JUMPDEST POP POP POP JUMP JUMPDEST JUMPDEST DUP2 DUP2 LT ISZERO PUSH2 0x190B JUMPI PUSH2 0x1900 PUSH1 0x0 DUP3 PUSH2 0x18D4 JUMP JUMPDEST PUSH1 0x1 DUP2 ADD SWAP1 POP PUSH2 0x18ED JUMP JUMPDEST POP POP JUMP JUMPDEST PUSH1 0x1F DUP3 GT ISZERO PUSH2 0x1950 JUMPI PUSH2 0x1921 DUP2 PUSH2 0x17FA JUMP JUMPDEST PUSH2 0x192A DUP5 PUSH2 0x180F JUMP JUMPDEST DUP2 ADD PUSH1 0x20 DUP6 LT ISZERO PUSH2 0x1939 JUMPI DUP2 SWAP1 POP JUMPDEST PUSH2 0x194D PUSH2 0x1945 DUP6 PUSH2 0x180F JUMP JUMPDEST DUP4 ADD DUP3 PUSH2 0x18EC JUMP JUMPDEST POP POP JUMPDEST POP POP POP JUMP JUMPDEST PUSH1 0x0 DUP3 DUP3 SHR SWAP1 POP SWAP3 SWAP2 POP POP JUMP JUMPDEST PUSH1 0x0 PUSH2 0x1973 PUSH1 0x0 NOT DUP5 PUSH1 0x8 MUL PUSH2 0x1955 JUMP JUMPDEST NOT DUP1 DUP4 AND SWAP2 POP POP SWAP3 SWAP2 POP POP JUMP JUMPDEST PUSH1 0x0 PUSH2 0x198C DUP4 DUP4 PUSH2 0x1962 JUMP JUMPDEST SWAP2 POP DUP3 PUSH1 0x2 MUL DUP3 OR SWAP1 POP SWAP3 SWAP2 POP POP JUMP JUMPDEST PUSH2 0x19A5 DUP3 PUSH2 0x10A4 JUMP JUMPDEST PUSH8 0xFFFFFFFFFFFFFFFF DUP2 GT ISZERO PUSH2 0x19BE JUMPI PUSH2 0x19BD PUSH2 0x17CB JUMP JUMPDEST JUMPDEST PUSH2 0x19C8 DUP3 SLOAD PUSH2 0x1699 JUMP JUMPDEST PUSH2 0x19D3 DUP3 DUP3 DUP6 PUSH2 0x190F JUMP JUMPDEST PUSH1 0x0 PUSH1 0x20 SWAP1 POP PUSH1 0x1F DUP4 GT PUSH1 0x1 DUP2 EQ PUSH2 0x1A06 JUMPI PUSH1 0x0 DUP5 ISZERO PUSH2 0x19F4 JUMPI DUP3 DUP8 ADD MLOAD SWAP1 POP JUMPDEST PUSH2 0x19FE DUP6 DUP3 PUSH2 0x1980 JUMP JUMPDEST DUP7 SSTORE POP PUSH2 0x1A66 JUMP JUMPDEST PUSH1 0x1F NOT DUP5 AND PUSH2 0x1A14 DUP7 PUSH2 0x17FA JUMP JUMPDEST PUSH1 0x0 JUMPDEST DUP3 DUP2 LT ISZERO PUSH2 0x1A3C JUMPI DUP5 DUP10 ADD MLOAD DUP3 SSTORE PUSH1 0x1 DUP3 ADD SWAP2 POP PUSH1 0x20 DUP6 ADD SWAP5 POP PUSH1 0x20 DUP2 ADD SWAP1 POP PUSH2 0x1A17 JUMP JUMPDEST DUP7 DUP4 LT ISZERO PUSH2 0x1A59 JUMPI DUP5 DUP10 ADD MLOAD PUSH2 0x1A55 PUSH1 0x1F DUP10 AND DUP3 PUSH2 0x1962 JUMP JUMPDEST DUP4 SSTORE POP JUMPDEST PUSH1 0x1 PUSH1 0x2 DUP9 MUL ADD DUP9 SSTORE POP POP POP JUMPDEST POP POP POP POP POP POP JUMP JUMPDEST DUP3 DUP2 DUP4 CALLDATACOPY PUSH1 0x0 DUP4 DUP4 ADD MSTORE POP POP POP JUMP JUMPDEST PUSH1 0x0 PUSH2 0x1A89 DUP4 DUP6 PUSH2 0x10AF JUMP JUMPDEST SWAP4 POP PUSH2 0x1A96 DUP4 DUP6 DUP5 PUSH2 0x1A6E JUMP JUMPDEST PUSH2 0x1A9F DUP4 PUSH2 0x10EA JUMP JUMPDEST DUP5 ADD SWAP1 POP SWAP4 SWAP3 POP POP POP JUMP JUMPDEST PUSH1 0x0 PUSH1 0x80 DUP3 ADD SWAP1 POP PUSH2 0x1ABF PUSH1 0x0 DUP4 ADD DUP9 PUSH2 0x1134 JUMP JUMPDEST PUSH2 0x1ACC PUSH1 0x20 DUP4 ADD DUP8 PUSH2 0x1095 JUMP JUMPDEST DUP2 DUP2 SUB PUSH1 0x40 DUP4 ADD MSTORE PUSH2 0x1ADF DUP2 DUP6 DUP8 PUSH2 0x1A7D JUMP JUMPDEST SWAP1 POP PUSH2 0x1AEE PUSH1 0x60 DUP4 ADD DUP5 PUSH2 0x1134 JUMP JUMPDEST SWAP7 SWAP6 POP POP POP POP POP POP JUMP JUMPDEST PUSH32 0x566F74696E6720646561646C696E652068617320706173736564000000000000 PUSH1 0x0 DUP3 ADD MSTORE POP JUMP JUMPDEST PUSH1 0x0 PUSH2 0x1B2E PUSH1 0x1A DUP4 PUSH2 0x10AF JUMP JUMPDEST SWAP2 POP PUSH2 0x1B39 DUP3 PUSH2 0x1AF8 JUMP JUMPDEST PUSH1 0x20 DUP3 ADD SWAP1 POP SWAP2 SWAP1 POP JUMP JUMPDEST PUSH1 0x0 PUSH1 0x20 DUP3 ADD SWAP1 POP DUP2 DUP2 SUB PUSH1 0x0 DUP4 ADD MSTORE PUSH2 0x1B5D DUP2 PUSH2 0x1B21 JUMP JUMPDEST SWAP1 POP SWAP2 SWAP1 POP JUMP JUMPDEST PUSH1 0x0 PUSH1 0x80 DUP3 ADD SWAP1 POP PUSH2 0x1B79 PUSH1 0x0 DUP4 ADD DUP8 PUSH2 0x1134 JUMP JUMPDEST PUSH2 0x1B86 PUSH1 0x20 DUP4 ADD DUP7 PUSH2 0x1134 JUMP JUMPDEST PUSH2 0x1B93 PUSH1 0x40 DUP4 ADD DUP6 PUSH2 0x1095 JUMP JUMPDEST PUSH2 0x1BA0 PUSH1 0x60 DUP4 ADD DUP5 PUSH2 0x1134 JUMP JUMPDEST SWAP6 SWAP5 POP POP POP POP POP JUMP JUMPDEST PUSH32 0x52657761726420636C61696D20706572696F64206E6F74207965742073746172 PUSH1 0x0 DUP3 ADD MSTORE PUSH32 0x7465640000000000000000000000000000000000000000000000000000000000 PUSH1 0x20 DUP3 ADD MSTORE POP JUMP JUMPDEST PUSH1 0x0 PUSH2 0x1C05 PUSH1 0x23 DUP4 PUSH2 0x10AF JUMP JUMPDEST SWAP2 POP PUSH2 0x1C10 DUP3 PUSH2 0x1BA9 JUMP JUMPDEST PUSH1 0x40 DUP3 ADD SWAP1 POP SWAP2 SWAP1 POP JUMP JUMPDEST PUSH1 0x0 PUSH1 0x20 DUP3 ADD SWAP1 POP DUP2 DUP2 SUB PUSH1 0x0 DUP4 ADD MSTORE PUSH2 0x1C34 DUP2 PUSH2 0x1BF8 JUMP JUMPDEST SWAP1 POP SWAP2 SWAP1 POP JUMP JUMPDEST PUSH32 0x4E6F207265776172647320617661696C61626C65000000000000000000000000 PUSH1 0x0 DUP3 ADD MSTORE POP JUMP JUMPDEST PUSH1 0x0 PUSH2 0x1C71 PUSH1 0x14 DUP4 PUSH2 0x10AF JUMP JUMPDEST SWAP2 POP PUSH2 0x1C7C DUP3 PUSH2 0x1C3B JUMP JUMPDEST PUSH1 0x20 DUP3 ADD SWAP1 POP SWAP2 SWAP1 POP JUMP JUMPDEST PUSH1 0x0 PUSH1 0x20 DUP3 ADD SWAP1 POP DUP2 DUP2 SUB PUSH1 0x0 DUP4 ADD MSTORE PUSH2 0x1CA0 DUP2 PUSH2 0x1C64 JUMP JUMPDEST SWAP1 POP SWAP2 SWAP1 POP JUMP JUMPDEST PUSH1 0x0 PUSH2 0x1CB2 DUP3 PUSH2 0xFED JUMP JUMPDEST SWAP2 POP PUSH2 0x1CBD DUP4 PUSH2 0xFED JUMP JUMPDEST SWAP3 POP DUP3 DUP3 MUL PUSH2 0x1CCB DUP2 PUSH2 0xFED JUMP JUMPDEST SWAP2 POP DUP3 DUP3 DIV DUP5 EQ DUP4 ISZERO OR PUSH2 0x1CE2 JUMPI PUSH2 0x1CE1 PUSH2 0x15D0 JUMP JUMPDEST JUMPDEST POP SWAP3 SWAP2 POP POP JUMP JUMPDEST PUSH32 0x416E7377657220646561646C696E652068617320706173736564000000000000 PUSH1 0x0 DUP3 ADD MSTORE POP JUMP JUMPDEST PUSH1 0x0 PUSH2 0x1D1F PUSH1 0x1A DUP4 PUSH2 0x10AF JUMP JUMPDEST SWAP2 POP PUSH2 0x1D2A DUP3 PUSH2 0x1CE9 JUMP JUMPDEST PUSH1 0x20 DUP3 ADD SWAP1 POP SWAP2 SWAP1 POP JUMP JUMPDEST PUSH1 0x0 PUSH1 0x20 DUP3 ADD SWAP1 POP DUP2 DUP2 SUB PUSH1 0x0 DUP4 ADD MSTORE PUSH2 0x1D4E DUP2 PUSH2 0x1D12 JUMP JUMPDEST SWAP1 POP SWAP2 SWAP1 POP JUMP JUMPDEST PUSH1 0x0 PUSH1 0x60 DUP3 ADD SWAP1 POP PUSH2 0x1D6A PUSH1 0x0 DUP4 ADD DUP8 PUSH2 0x1134 JUMP JUMPDEST PUSH2 0x1D77 PUSH1 0x20 DUP4 ADD DUP7 PUSH2 0x1095 JUMP JUMPDEST DUP2 DUP2 SUB PUSH1 0x40 DUP4 ADD MSTORE PUSH2 0x1D8A DUP2 DUP5 DUP7 PUSH2 0x1A7D JUMP JUMPDEST SWAP1 POP SWAP6 SWAP5 POP POP POP POP POP JUMP INVALID LOG2 PUSH5 0x6970667358 0x22 SLT KECCAK256 TLOAD 0x2C 0xA6 SHL EXTCODESIZE 0x22 PUSH0 0xBD PUSH29 0xE8A472D3F627C9A4422BEBBB899744610C9A3386818EC964736F6C6343 STOP ADDMOD XOR STOP CALLER "
        },
        "methodIdentifiers": {
          "answerDeadline()": "75f39fd7",
          "answers(uint256,uint256)": "2401519c",
          "claimBounty(uint256)": "44021ad7",
          "claimParticipationRewards()": "abb4b2a6",
          "participationReward(address)": "ea9440f0",
          "postAnswer(uint256,string)": "c921d66c",
          "postQuestion(string,uint256)": "48d69ab3",
          "questionLength()": "94ccbd35",
          "questions(uint256)": "31b1b978",
          "rewardClaimDeadline()": "674ed6b9",
          "token()": "fc0c546a",
          "upvoteAnswer(uint256,uint256,uint256)": "9dd62717",
          "upvoteQuestion(uint256,uint256)": "211e3734"
        }
      }
    }
  }
}